:060000000A128A11E92F2B
:100F88000A128A1100287E088A007F088200C72773
:100F98000A128A118000840A04087D0603190034A5
:100FA800FF0A0319FE0ACB2F2034773477347734BD
:100FB8002E346F346C3469346D34653478342E349F
:100FC80063346F346D3420340034F001F101F201E0
:100FD800F301F40183133130FD000730FE00D830EF
:100FE800FF00203084000A128A11CB270A128A11C6
:080FF80083010A128A11C42FC3
:02400E00F43F7D
:00000001FF
